{
  "contractName": "Courier",
  "abi": [
    {
      "anonymous": false,
      "inputs": [
        {
          "indexed": false,
          "internalType": "uint256",
          "name": "id",
          "type": "uint256"
        },
        {
          "indexed": false,
          "internalType": "address",
          "name": "courier",
          "type": "address"
        },
        {
          "indexed": false,
          "internalType": "address",
          "name": "sender",
          "type": "address"
        },
        {
          "indexed": false,
          "internalType": "address",
          "name": "receiver",
          "type": "address"
        }
      ],
      "name": "PackageArrived",
      "type": "event"
    },
    {
      "anonymous": false,
      "inputs": [
        {
          "indexed": false,
          "internalType": "uint256",
          "name": "id",
          "type": "uint256"
        },
        {
          "indexed": false,
          "internalType": "address",
          "name": "sender",
          "type": "address"
        },
        {
          "indexed": false,
          "internalType": "address",
          "name": "receiver",
          "type": "address"
        },
        {
          "indexed": false,
          "internalType": "uint256",
          "name": "weight",
          "type": "uint256"
        }
      ],
      "name": "PackageBooked",
      "type": "event"
    },
    {
      "anonymous": false,
      "inputs": [
        {
          "indexed": false,
          "internalType": "uint256",
          "name": "id",
          "type": "uint256"
        },
        {
          "indexed": false,
          "internalType": "address",
          "name": "courier",
          "type": "address"
        },
        {
          "indexed": false,
          "internalType": "address",
          "name": "sender",
          "type": "address"
        },
        {
          "indexed": false,
          "internalType": "address",
          "name": "receiver",
          "type": "address"
        }
      ],
      "name": "PackageCancelled",
      "type": "event"
    },
    {
      "anonymous": false,
      "inputs": [
        {
          "indexed": false,
          "internalType": "uint256",
          "name": "id",
          "type": "uint256"
        },
        {
          "indexed": false,
          "internalType": "address",
          "name": "courier",
          "type": "address"
        },
        {
          "indexed": false,
          "internalType": "address",
          "name": "sender",
          "type": "address"
        },
        {
          "indexed": false,
          "internalType": "address",
          "name": "receiver",
          "type": "address"
        }
      ],
      "name": "PackagePicked",
      "type": "event"
    },
    {
      "anonymous": false,
      "inputs": [
        {
          "indexed": false,
          "internalType": "uint256",
          "name": "id",
          "type": "uint256"
        },
        {
          "indexed": false,
          "internalType": "address",
          "name": "courier",
          "type": "address"
        },
        {
          "indexed": false,
          "internalType": "address",
          "name": "sender",
          "type": "address"
        },
        {
          "indexed": false,
          "internalType": "address",
          "name": "receiver",
          "type": "address"
        }
      ],
      "name": "PackageReceived",
      "type": "event"
    },
    {
      "constant": true,
      "inputs": [
        {
          "internalType": "uint256",
          "name": "",
          "type": "uint256"
        }
      ],
      "name": "packageCourierId",
      "outputs": [
        {
          "internalType": "address payable",
          "name": "",
          "type": "address"
        }
      ],
      "payable": false,
      "stateMutability": "view",
      "type": "function"
    },
    {
      "constant": true,
      "inputs": [
        {
          "internalType": "address",
          "name": "",
          "type": "address"
        }
      ],
      "name": "pendingDeliveryCharge",
      "outputs": [
        {
          "internalType": "uint256",
          "name": "",
          "type": "uint256"
        }
      ],
      "payable": false,
      "stateMutability": "view",
      "type": "function"
    },
    {
      "constant": false,
      "inputs": [
        {
          "internalType": "uint256",
          "name": "_weight",
          "type": "uint256"
        },
        {
          "internalType": "address payable",
          "name": "receiver",
          "type": "address"
        }
      ],
      "name": "addPackage",
      "outputs": [
        {
          "internalType": "uint256",
          "name": "",
          "type": "uint256"
        }
      ],
      "payable": true,
      "stateMutability": "payable",
      "type": "function"
    },
    {
      "constant": false,
      "inputs": [
        {
          "internalType": "uint256",
          "name": "_id",
          "type": "uint256"
        }
      ],
      "name": "pickPackage",
      "outputs": [],
      "payable": false,
      "stateMutability": "nonpayable",
      "type": "function"
    },
    {
      "constant": false,
      "inputs": [
        {
          "internalType": "uint256",
          "name": "_id",
          "type": "uint256"
        }
      ],
      "name": "arrivedPackage",
      "outputs": [],
      "payable": false,
      "stateMutability": "nonpayable",
      "type": "function"
    },
    {
      "constant": false,
      "inputs": [
        {
          "internalType": "uint256",
          "name": "_id",
          "type": "uint256"
        }
      ],
      "name": "receivedPackage",
      "outputs": [
        {
          "internalType": "bool",
          "name": "",
          "type": "bool"
        }
      ],
      "payable": true,
      "stateMutability": "payable",
      "type": "function"
    },
    {
      "constant": false,
      "inputs": [
        {
          "internalType": "uint256",
          "name": "_id",
          "type": "uint256"
        }
      ],
      "name": "cancelPackage",
      "outputs": [
        {
          "internalType": "bool",
          "name": "",
          "type": "bool"
        }
      ],
      "payable": false,
      "stateMutability": "nonpayable",
      "type": "function"
    }
  ],
  "bytecode": "0x6080604052600160005534801561001557600080fd5b50611174806100256000396000f3fe6080604052600436106100705760003560e01c80636d445b551161004e5780636d445b551461017157806375ac5032146101c45780639f58e24614610229578063d9fed1121461026457610070565b806303bb09741461007557806346d82944146100f05780636354f29314610136575b600080fd5b34801561008157600080fd5b506100ae6004803603602081101561009857600080fd5b81019080803590602001909291905050506102c6565b604051808273ffffffffffffffffffffffffffffffffffffffff1673ffffffffffffffffffffffffffffffffffffffff16815260200191505060405180910390f35b61011c6004803603602081101561010657600080fd5b81019080803590602001909291905050506102f9565b604051808215151515815260200191505060405180910390f35b34801561014257600080fd5b5061016f6004803603602081101561015957600080fd5b810190808035906020019092919050505061063d565b005b34801561017d57600080fd5b506101aa6004803603602081101561019457600080fd5b8101908080359060200190929190505050610821565b604051808215151515815260200191505060405180910390f35b3480156101d057600080fd5b50610213600480360360208110156101e757600080fd5b81019080803573ffffffffffffffffffffffffffffffffffffffff169060200190929190505050610bf8565b6040518082815260200191505060405180910390f35b34801561023557600080fd5b506102626004803603602081101561024c57600080fd5b8101908080359060200190929190505050610c10565b005b6102b06004803603604081101561027a57600080fd5b8101908080359060200190929190803573ffffffffffffffffffffffffffffffffffffffff169060200190929190505050610e62565b6040518082815260200191505060405180910390f35b60016020528060005260406000206000915054906101000a900473ffffffffffffffffffffffffffffffffffffffff1681565b6000806003838154811061030957fe5b906000526020600020906004020190503373ffffffffffffffffffffffffffffffffffffffff168160030160009054906101000a900473ffffffffffffffffffffffffffffffffffffffff1673ffffffffffffffffffffffffffffffffffffffff1614801561039f57506003600481111561038057fe5b8160020160149054906101000a900460ff16600481111561039d57fe5b145b6103f4576040517f08c379a00000000000000000000000000000000000000000000000000000000081526004018080602001828103825260218152602001806110f06021913960400191505060405180910390fd5b60018160020160146101000a81548160ff0219169083600481111561041557fe5b021790555060008054826001015402905060006001600086815260200190815260200160002060009054906101000a900473ffffffffffffffffffffffffffffffffffffffff1690508073ffffffffffffffffffffffffffffffffffffffff166108fc839081150290604051600060405180830381858888f19350505050156106305781600260008560020160009054906101000a900473ffffffffffffffffffffffffffffffffffffffff1673ffffffffffffffffffffffffffffffffffffffff1673ffffffffffffffffffffffffffffffffffffffff168152602001908152602001600020600082825403925050819055507f0f0bbb8e4ddf2f6140d8784b5180f07db3074d26f18036261d2d344156b940e685828560020160009054906101000a900473ffffffffffffffffffffffffffffffffffffffff168660030160009054906101000a900473ffffffffffffffffffffffffffffffffffffffff16604051808581526020018473ffffffffffffffffffffffffffffffffffffffff1673ffffffffffffffffffffffffffffffffffffffff1681526020018373ffffffffffffffffffffffffffffffffffffffff1673ffffffffffffffffffffffffffffffffffffffff1681526020018273ffffffffffffffffffffffffffffffffffffffff1673ffffffffffffffffffffffffffffffffffffffff16815260200194505050505060405180910390a160019350505050610638565b600093505050505b919050565b60006003828154811061064c57fe5b906000526020600020906004020190506000600481111561066957fe5b8160020160149054906101000a900460ff16600481111561068657fe5b146106dc576040517f08c379a000000000000000000000000000000000000000000000000000000000815260040180806020018281038252602b8152602001806110c5602b913960400191505060405180910390fd5b60038160020160146101000a81548160ff021916908360048111156106fd57fe5b02179055507fa0acc237fca38cbbf68fc81215c674ba80c7c783ee3319dc236d5e9aad80860a82338360020160009054906101000a900473ffffffffffffffffffffffffffffffffffffffff168460030160009054906101000a900473ffffffffffffffffffffffffffffffffffffffff16604051808581526020018473ffffffffffffffffffffffffffffffffffffffff1673ffffffffffffffffffffffffffffffffffffffff1681526020018373ffffffffffffffffffffffffffffffffffffffff1673ffffffffffffffffffffffffffffffffffffffff1681526020018273ffffffffffffffffffffffffffffffffffffffff1673ffffffffffffffffffffffffffffffffffffffff16815260200194505050505060405180910390a15050565b6000806003838154811061083157fe5b906000526020600020906004020190508060020160009054906101000a900473ffffffffffffffffffffffffffffffffffffffff1673ffffffffffffffffffffffffffffffffffffffff163373ffffffffffffffffffffffffffffffffffffffff161480156108f85750600060048111156108a857fe5b8160020160149054906101000a900460ff1660048111156108c557fe5b14806108f757506004808111156108d857fe5b8160020160149054906101000a900460ff1660048111156108f557fe5b145b5b61094d576040517f08c379a000000000000000000000000000000000000000000000000000000000815260040180806020018281038252602f815260200180611111602f913960400191505060405180910390fd5b60008054826001015402905060006001600086815260200190815260200160002060009054906101000a900473ffffffffffffffffffffffffffffffffffffffff1690506000600481111561099e57fe5b8360020160149054906101000a900460ff1660048111156109bb57fe5b1415610bc5578073ffffffffffffffffffffffffffffffffffffffff166108fc839081150290604051600060405180830381858888f1935050505015610bb95760028360020160146101000a81548160ff02191690836004811115610a1c57fe5b021790555081600260008560020160009054906101000a900473ffffffffffffffffffffffffffffffffffffffff1673ffffffffffffffffffffffffffffffffffffffff1673ffffffffffffffffffffffffffffffffffffffff168152602001908152602001600020600082825403925050819055507f0ef9e8bc3c5dac186d22e5698167ba7f60b0d02b06da1719a23434dfa8bfcc8c85828560020160009054906101000a900473ffffffffffffffffffffffffffffffffffffffff168660030160009054906101000a900473ffffffffffffffffffffffffffffffffffffffff16604051808581526020018473ffffffffffffffffffffffffffffffffffffffff1673ffffffffffffffffffffffffffffffffffffffff1681526020018373ffffffffffffffffffffffffffffffffffffffff1673ffffffffffffffffffffffffffffffffffffffff1681526020018273ffffffffffffffffffffffffffffffffffffffff1673ffffffffffffffffffffffffffffffffffffffff16815260200194505050505060405180910390a160019350505050610bf3565b60009350505050610bf3565b60028360020160146101000a81548160ff02191690836004811115610be657fe5b0217905550600193505050505b919050565b60026020528060005260406000206000915090505481565b600060038281548110610c1f57fe5b90600052602060002090600402019050600480811115610c3b57fe5b8160020160149054906101000a900460ff166004811115610c5857fe5b14610ccb576040517f08c379a000000000000000000000000000000000000000000000000000000000815260040180806020018281038252601d8152602001807f5061636b61676520697320616c7265616479206469737061746368656400000081525060200191505060405180910390fd5b60008160020160146101000a81548160ff02191690836004811115610cec57fe5b0217905550336001600084815260200190815260200160002060006101000a81548173ffffffffffffffffffffffffffffffffffffffff021916908373ffffffffffffffffffffffffffffffffffffffff1602179055507f30311efc9cdf813f3ee8cae5eb0107133fc341a6813e470d083029453fe687c182338360020160009054906101000a900473ffffffffffffffffffffffffffffffffffffffff168460030160009054906101000a900473ffffffffffffffffffffffffffffffffffffffff16604051808581526020018473ffffffffffffffffffffffffffffffffffffffff1673ffffffffffffffffffffffffffffffffffffffff1681526020018373ffffffffffffffffffffffffffffffffffffffff1673ffffffffffffffffffffffffffffffffffffffff1681526020018273ffffffffffffffffffffffffffffffffffffffff1673ffffffffffffffffffffffffffffffffffffffff16815260200194505050505060405180910390a15050565b600080600380549050905060036040518060a001604052808381526020018681526020013373ffffffffffffffffffffffffffffffffffffffff168152602001600480811115610eae57fe5b81526020018573ffffffffffffffffffffffffffffffffffffffff1681525090806001815401808255809150509060018203906000526020600020906004020160009091929091909150600082015181600001556020820151816001015560408201518160020160006101000a81548173ffffffffffffffffffffffffffffffffffffffff021916908373ffffffffffffffffffffffffffffffffffffffff16021790555060608201518160020160146101000a81548160ff02191690836004811115610f7757fe5b021790555060808201518160030160006101000a81548173ffffffffffffffffffffffffffffffffffffffff021916908373ffffffffffffffffffffffffffffffffffffffff1602179055505050507f15c81285c71357151770e25e47022c38b4ae256600c50c21b34532b1fdb9ee3e81338587604051808581526020018473ffffffffffffffffffffffffffffffffffffffff1673ffffffffffffffffffffffffffffffffffffffff1681526020018373ffffffffffffffffffffffffffffffffffffffff1673ffffffffffffffffffffffffffffffffffffffff16815260200182815260200194505050505060405180910390a134600260003373ffffffffffffffffffffffffffffffffffffffff1673ffffffffffffffffffffffffffffffffffffffff16815260200190815260200160002060008282540192505081905550809150509291505056fe5061636b61676520776173206e6f7420696e207472616e73697420666f7220697420746f206172726976655061636b61676520617272697665642061742077726f6e67207265636569766572596f7520646f206e6f74206861766520617574686f72697a6174696f6e20746f2063616e63656c207061636b616765a265627a7a7231582089450cdc8893abfa11ea879f7d876a95da5e676b9d91315d392df6aefccfa52064736f6c63430005100032",
  "source": "pragma solidity >= 0.4.22 < 0.7.0;\r\ncontract Courier {\r\n    enum PackageStatus {\r\n        inTransit,\r\n        received,\r\n        cancelled,\r\n        arrived,\r\n        booked\r\n    }\r\n   \r\n    struct Package {\r\n        uint id;\r\n        uint weight;\r\n        address sender;\r\n        PackageStatus status;\r\n        address receiver;\r\n    }\r\n    uint MULTIPLIER = 1;\r\n    mapping (uint => address payable) public packageCourierId;\r\n    mapping (address => uint) public pendingDeliveryCharge;\r\n    Package[] private _packages;\r\n    event PackageBooked(uint id, address sender, address receiver, uint weight);\r\n    event PackagePicked(uint id, address courier, address sender, address receiver);\r\n    event PackageArrived(uint id, address courier, address sender, address receiver);\r\n    event PackageReceived(uint id, address courier, address sender, address receiver);\r\n    event PackageCancelled(uint id, address courier, address sender, address receiver);\r\n   \r\n    function addPackage(uint  _weight, address payable receiver) public payable returns (uint){\r\n        // Multipler is the numerical factor converting weight to delivery charge\r\n        // we are keeping it as 1 for now.  Value must be equal to\r\n        // weight*MULTIPLIER\r\n       \r\n        //require(msg.value == _weight*MULTIPLIER, \"Incorrect amount\");\r\n       \r\n        uint id = _packages.length;\r\n        _packages.push(Package({\r\n            id: id,\r\n            weight: _weight,\r\n            sender: msg.sender,\r\n            status: PackageStatus.booked,\r\n            receiver: receiver\r\n        }));\r\n       \r\n       \r\n       \r\n        emit PackageBooked(id, msg.sender, receiver, _weight);\r\n        pendingDeliveryCharge[msg.sender] += msg.value;\r\n       \r\n        return id;\r\n       \r\n    }\r\n   \r\n    function pickPackage(uint _id) public{\r\n        // courier calls this function to indicate that he has picked up the package\r\n        Package storage currentPackage = _packages[_id];\r\n        require(currentPackage.status == PackageStatus.booked, \"Package is already dispatched\");\r\n        currentPackage.status = PackageStatus.inTransit;\r\n       \r\n        packageCourierId[_id] = msg.sender;\r\n\r\n        emit PackagePicked(_id, msg.sender, currentPackage.sender, currentPackage.receiver);\r\n   \r\n    }\r\n   \r\n    function arrivedPackage(uint _id) public{\r\n        // this function will be called by the courier\r\n        // to indicate to the receiver that he has arrived at his address\r\n       \r\n        Package storage currentPackage = _packages[_id];\r\n        require(currentPackage.status == PackageStatus.inTransit, \"Package was not in transit for it to arrive\");\r\n        currentPackage.status = PackageStatus.arrived;\r\n       \r\n        emit PackageArrived(_id, msg.sender, currentPackage.sender, currentPackage.receiver);\r\n    }\r\n   \r\n    function receivedPackage(uint _id) public payable returns (bool){\r\n        // this function will be called by the receiver\r\n        // to indicate that he has received the package\r\n       \r\n       \r\n        Package storage currentPackage = _packages[_id];\r\n       \r\n        require(currentPackage.receiver == msg.sender && currentPackage.status == PackageStatus.arrived, \"Package arrived at wrong receiver\");\r\n        currentPackage.status = PackageStatus.received;\r\n        uint deliveryCharge = currentPackage.weight*MULTIPLIER;\r\n        address payable courier = packageCourierId[_id];\r\n\r\n       \r\n        if(courier.send(deliveryCharge)){\r\n            pendingDeliveryCharge[currentPackage.sender] -= deliveryCharge;\r\n            emit PackageReceived(_id, courier, currentPackage.sender, currentPackage.receiver);\r\n            return true;\r\n        }\r\n        else {\r\n            return false;\r\n        }\r\n    }\r\n   \r\n    function cancelPackage(uint _id) public returns (bool){\r\n        // only sender of package has the right to cancel Package\r\n        // Funds will be given to courier only if he has picked up the package\r\n        Package storage currentPackage = _packages[_id];\r\n        require(msg.sender == currentPackage.sender && (currentPackage.status == PackageStatus.inTransit || currentPackage.status == PackageStatus.booked), \"You do not have authorization to cancel package\");\r\n        uint deliveryCharge = currentPackage.weight*MULTIPLIER;\r\n        address payable courier = packageCourierId[_id];\r\n       \r\n       \r\n        if (currentPackage.status == PackageStatus.inTransit){\r\n            if (courier.send(deliveryCharge)){\r\n                currentPackage.status = PackageStatus.cancelled;\r\n                pendingDeliveryCharge[currentPackage.sender] -= deliveryCharge;\r\n                emit PackageCancelled(_id, courier, currentPackage.sender, currentPackage.receiver);\r\n                return true;\r\n               \r\n            }\r\n            else {\r\n                return false;\r\n            }\r\n           \r\n        }\r\n       \r\n        currentPackage.status = PackageStatus.cancelled;\r\n        return true;\r\n    }}\r\n   ",
  "sourcePath": "C:\\Users\\lenovo\\Desktop\\finalproject\\contracts\\Courier.sol",
  "compiler": {
    "name": "solc",
    "version": "0.5.16+commit.9c3226ce.Emscripten.clang"
  },
  "schemaVersion": "3.0.23",
  "updatedAt": "2020-04-12T14:22:20.321Z",
  "devdoc": {
    "methods": {}
  },
  "userdoc": {
    "methods": {}
  }
}